{
  "_format": "hh-sol-artifact-1",
  "contractName": "Assessment",
  "sourceName": "contracts/Assessment.sol",
  "abi": [
    {
      "inputs": [
        {
          "internalType": "uint256",
          "name": "initBalance",
          "type": "uint256"
        }
      ],
      "stateMutability": "payable",
      "type": "constructor"
    },
    {
      "inputs": [
        {
          "internalType": "uint256",
          "name": "balance",
          "type": "uint256"
        },
        {
          "internalType": "uint256",
          "name": "withdrawAmount",
          "type": "uint256"
        }
      ],
      "name": "InsufficientBalance",
      "type": "error"
    },
    {
      "anonymous": false,
      "inputs": [
        {
          "indexed": false,
          "internalType": "uint256",
          "name": "result",
          "type": "uint256"
        }
      ],
      "name": "AssertNotEqualResult",
      "type": "event"
    },
    {
      "anonymous": false,
      "inputs": [
        {
          "indexed": true,
          "internalType": "address",
          "name": "burner",
          "type": "address"
        },
        {
          "indexed": false,
          "internalType": "uint256",
          "name": "amount",
          "type": "uint256"
        }
      ],
      "name": "Burn",
      "type": "event"
    },
    {
      "anonymous": false,
      "inputs": [
        {
          "indexed": false,
          "internalType": "uint256",
          "name": "amount",
          "type": "uint256"
        }
      ],
      "name": "Deposit",
      "type": "event"
    },
    {
      "anonymous": false,
      "inputs": [
        {
          "indexed": false,
          "internalType": "uint256",
          "name": "amount",
          "type": "uint256"
        }
      ],
      "name": "Withdraw",
      "type": "event"
    },
    {
      "inputs": [
        {
          "internalType": "uint256",
          "name": "a",
          "type": "uint256"
        },
        {
          "internalType": "uint256",
          "name": "b",
          "type": "uint256"
        }
      ],
      "name": "assertNotEqual",
      "outputs": [
        {
          "internalType": "uint256",
          "name": "plus",
          "type": "uint256"
        }
      ],
      "stateMutability": "nonpayable",
      "type": "function"
    },
    {
      "inputs": [],
      "name": "balance",
      "outputs": [
        {
          "internalType": "uint256",
          "name": "",
          "type": "uint256"
        }
      ],
      "stateMutability": "view",
      "type": "function"
    },
    {
      "inputs": [
        {
          "internalType": "uint256",
          "name": "_amount",
          "type": "uint256"
        }
      ],
      "name": "burn",
      "outputs": [],
      "stateMutability": "nonpayable",
      "type": "function"
    },
    {
      "inputs": [
        {
          "internalType": "uint256",
          "name": "_amount",
          "type": "uint256"
        }
      ],
      "name": "deposit",
      "outputs": [],
      "stateMutability": "payable",
      "type": "function"
    },
    {
      "inputs": [],
      "name": "getBalance",
      "outputs": [
        {
          "internalType": "uint256",
          "name": "",
          "type": "uint256"
        }
      ],
      "stateMutability": "view",
      "type": "function"
    },
    {
      "inputs": [],
      "name": "owner",
      "outputs": [
        {
          "internalType": "address payable",
          "name": "",
          "type": "address"
        }
      ],
      "stateMutability": "view",
      "type": "function"
    },
    {
      "inputs": [
        {
          "internalType": "uint256",
          "name": "_withdrawAmount",
          "type": "uint256"
        }
      ],
      "name": "withdraw",
      "outputs": [],
      "stateMutability": "nonpayable",
      "type": "function"
    }
  ],
  "bytecode": "0x6080604052604051610aba380380610aba833981810160405281019061002591906100ad565b336000806101000a81548173ffffffffffffffffffffffffffffffffffffffff021916908373ffffffffffffffffffffffffffffffffffffffff16021790555080600181905550506100da565b600080fd5b6000819050919050565b61008a81610077565b811461009557600080fd5b50565b6000815190506100a781610081565b92915050565b6000602082840312156100c3576100c2610072565b5b60006100d184828501610098565b91505092915050565b6109d1806100e96000396000f3fe6080604052600436106100705760003560e01c806342966c681161004e57806342966c68146101065780638da5cb5b1461012f578063b69ef8a81461015a578063b6b55f251461018557610070565b806312065fe01461007557806328cd1b02146100a05780632e1a7d4d146100dd575b600080fd5b34801561008157600080fd5b5061008a6101a1565b604051610097919061061c565b60405180910390f35b3480156100ac57600080fd5b506100c760048036038101906100c29190610668565b6101ab565b6040516100d4919061061c565b60405180910390f35b3480156100e957600080fd5b5061010460048036038101906100ff91906106a8565b610245565b005b34801561011257600080fd5b5061012d600480360381019061012891906106a8565b610396565b005b34801561013b57600080fd5b506101446104d3565b6040516101519190610716565b60405180910390f35b34801561016657600080fd5b5061016f6104f7565b60405161017c919061061c565b60405180910390f35b61019f600480360381019061019a91906106a8565b6104fd565b005b6000600154905090565b60008183036101ef576040517f08c379a00000000000000000000000000000000000000000000000000000000081526004016101e69061078e565b60405180910390fd5b7fb012e16be7d0ed0368fbc3c8860184637c257a34e03e564f4209267200499a70828461021c91906107dd565b604051610229919061061c565b60405180910390a1818361023d91906107dd565b905092915050565b60008054906101000a900473ffffffffffffffffffffffffffffffffffffffff1673ffffffffffffffffffffffffffffffffffffffff163373ffffffffffffffffffffffffffffffffffffffff16146102d3576040517f08c379a00000000000000000000000000000000000000000000000000000000081526004016102ca90610883565b60405180910390fd5b6000600154905081600154101561032557600154826040517fcf47918100000000000000000000000000000000000000000000000000000000815260040161031c9291906108a3565b60405180910390fd5b816001600082825461033791906108cc565b92505081905550818161034a91906108cc565b6001541461035b5761035a610900565b5b7f5b6b431d4476a211bb7d41c20d1aab9ae2321deee0d20be3d9fc9b1093fa6e3d8260405161038a919061061c565b60405180910390a15050565b60008054906101000a900473ffffffffffffffffffffffffffffffffffffffff1673ffffffffffffffffffffffffffffffffffffffff163373ffffffffffffffffffffffffffffffffffffffff1614610424576040517f08c379a000000000000000000000000000000000000000000000000000000000815260040161041b90610883565b60405180910390fd5b806001541015610469576040517f08c379a00000000000000000000000000000000000000000000000000000000081526004016104609061097b565b60405180910390fd5b806001600082825461047b91906108cc565b925050819055503373ffffffffffffffffffffffffffffffffffffffff167fcc16f5dbb4873280815c1ee09dbd06736cffcc184412cf7a71a0fdb75d397ca5826040516104c8919061061c565b60405180910390a250565b60008054906101000a900473ffffffffffffffffffffffffffffffffffffffff1681565b60015481565b6000600154905060008054906101000a900473ffffffffffffffffffffffffffffffffffffffff1673ffffffffffffffffffffffffffffffffffffffff163373ffffffffffffffffffffffffffffffffffffffff1614610592576040517f08c379a000000000000000000000000000000000000000000000000000000000815260040161058990610883565b60405180910390fd5b81600160008282546105a491906107dd565b9250508190555081816105b791906107dd565b600154146105c8576105c7610900565b5b7f4d6ce1e535dbade1c23defba91e23b8f791ce5edc0cc320257a2b364e4e38426826040516105f7919061061c565b60405180910390a15050565b6000819050919050565b61061681610603565b82525050565b6000602082019050610631600083018461060d565b92915050565b600080fd5b61064581610603565b811461065057600080fd5b50565b6000813590506106628161063c565b92915050565b6000806040838503121561067f5761067e610637565b5b600061068d85828601610653565b925050602061069e85828601610653565b9150509250929050565b6000602082840312156106be576106bd610637565b5b60006106cc84828501610653565b91505092915050565b600073ffffffffffffffffffffffffffffffffffffffff82169050919050565b6000610700826106d5565b9050919050565b610710816106f5565b82525050565b600060208201905061072b6000830184610707565b92915050565b600082825260208201905092915050565b7f56616c7565732061726520657175616c00000000000000000000000000000000600082015250565b6000610778601083610731565b915061078382610742565b602082019050919050565b600060208201905081810360008301526107a78161076b565b9050919050565b7f4e487b7100000000000000000000000000000000000000000000000000000000600052601160045260246000fd5b60006107e882610603565b91506107f383610603565b925082820190508082111561080b5761080a6107ae565b5b92915050565b7f596f7520617265206e6f7420746865206f776e6572206f66207468697320616360008201527f636f756e74000000000000000000000000000000000000000000000000000000602082015250565b600061086d602583610731565b915061087882610811565b604082019050919050565b6000602082019050818103600083015261089c81610860565b9050919050565b60006040820190506108b8600083018561060d565b6108c5602083018461060d565b9392505050565b60006108d782610603565b91506108e283610603565b92508282039050818111156108fa576108f96107ae565b5b92915050565b7f4e487b7100000000000000000000000000000000000000000000000000000000600052600160045260246000fd5b7f496e73756666696369656e742062616c616e636520746f206275726e00000000600082015250565b6000610965601c83610731565b91506109708261092f565b602082019050919050565b6000602082019050818103600083015261099481610958565b905091905056fea264697066735822122070d470e6fd1ec164c2b1494f65200c12f5d2bf22a955400b6ad4577346132bf764736f6c63430008110033",
  "linkReferences": {},
  "deployedLinkReferences": {}
}